:020000040800F2
:10000000F80C0020890100086D09000805080008A7
:100010006909000835060008D11B0008000000002F
:10002000000000000000000000000000450F000874
:10003000E506000800000000E90E0008A91000080D
:10004000A3010008A3010008A3010008A301000800
:10005000A3010008A3010008A3010008A3010008F0
:10006000A3010008A3010008A3010008A3010008E0
:10007000A3010008A3010008A3010008A3010008D0
:10008000A3010008A3010008A3010008A3010008C0
:10009000A3010008A3010008A3010008A3010008B0
:1000A000A3010008A3010008A3010008A3010008A0
:1000B000A3010008A3010008A3010008A301000890
:1000C000A3010008A3010008A3010008A301000880
:1000D000A3010008FD18000819190008A301000871
:1000E000A3010008A3010008A301000800F002F822
:1000F00000F03AF80AA090E8000C82448344AAF188
:100100000107DA4501D100F02FF8AFF2090EBAE885
:100110000F0013F0010F18BFFB1A43F0010318473B
:10012000903E0000B03E0000103A24BF78C878C16D
:10013000FAD8520724BF30C830C144BF04680C60ED
:10014000704700000023002400250026103A28BF35
:1001500078C1FBD8520728BF30C148BF0B60704739
:100160001FB51FBD10B510BD00F09BF81146FFF77D
:10017000F7FF01F067FD00F0B9F803B4FFF7F2FFF5
:1001800003BC01F027FD00000948804709480047EB
:10019000FEE7FEE7FEE7FEE7FEE7FEE7FEE7FEE737
:1001A000FEE7FEE704480549054A064B7047000094
:1001B000B5100008ED000008F8060020F80C00203B
:1001C000F8080020F8080020704710B5431C02E032
:1001D00010F8011B71B18107FAD14FF0013202C84A
:1001E0008C1A8C4314EAC211F9D0C01A0A0603D043
:1001F000C01E10BDC01A10BD0A0401D0801E10BD63
:100200000902FCD0401E10BD4FF000020429C0F0CE
:10021000128010F0030C00F01F80CCF1040CBCF134
:10022000020F18BF00F8012BA8BF20F8022BA1EB8A
:100230000C0100F011B85FEAC17C24BF00F8012B6B
:1002400000F8012B48BF00F8012B7047704770473A
:10025000704770474FF0000200B51346944696462B
:10026000203922BFA0E80C50A0E80C50B1F12001C9
:10027000BFF4F7AF090728BFA0E80C5048BF0CC077
:100280005DF804EB890028BF40F8042B08BF7047D5
:1002900048BF20F8022B11F0804F18BF00F8012B47
:1002A0007047754600F02CF8AE4605006946534687
:1002B00020F00700854618B020B5FFF773FFBDE8B2
:1002C00020404FF000064FF000074FF000084FF0BD
:1002D000000B21F00701AC46ACE8C009ACE8C0094E
:1002E000ACE8C009ACE8C0098D46704710B50446BB
:1002F000AFF300802046BDE81040FFF73EBF00008E
:10030000004870479406002021B1826842F0010243
:10031000826003E0826822F0010282607047000080
:1003200010B504461248844208D10121401500F05E
:10033000F9FD0021601500F0F5FD17E00D4884423D
:1003400008D10121001500F0EDFD0021201500F07D
:10035000E9FD0BE00848844208D10121C80300F000
:10036000E1FD00214FF4004000F0DCFD10BD000075
:100370000024014000280140003C014001460020CB
:100380008A6802F004020AB1012000E000207047F0
:100390000146C86C80B270470246002013680B40CB
:1003A0000BB1012000E000207047014600208A6860
:1003B00002F008020AB1012000E0002070470000AE
:1003C00030B502460020002350680F4C20400D79C4
:1003D0000C6844EA05242043506090680B4C204090
:1003E000D1E902542C434D7944EA450420439060FE
:1003F000D06A20F470000C7C641EE4B2234340EA0F
:100400000350D06230BD0000FFFEF0FFFDF7F1FFAA
:10041000F0B504460D4600200021092D11DDE068ED
:10042000A5F10A0606EB4607072606FA07F18843F8
:10043000A5F10A0606EB460603FA06F10843E0605A
:100440000CE0206905EB4507072606FA07F188430B
:1004500005EB450603FA06F108432061072A0FDA87
:10046000606B561E06EB86071F2606FA07F18843C7
:10047000561E06EB860605FA06F10843606322E085
:100480000D2A0FDA206BD61F06EB86071F2606FA09
:1004900007F18843D61F06EB860605FA06F10843E6
:1004A000206310E0E06AA2F10D0606EB86071F2626
:1004B00006FA07F18843A2F10D0606EB860605FA57
:1004C00006F10843E062F0BD816841F008018160F7
:1004D000704721B1826842F4A002826003E0826822
:1004E00022F4A00282607047816841F004018160BB
:1004F0007047000030B10749096841F40001054A1E
:10050000116005E00349096821F40001014A116006
:10051000704700000824014010B50446072301225B
:1005200021460948FFF774FF01210748FFF7D1FF73
:1005300000BF02210448FFF72FFF0028F9D002482E
:10054000FFF726FF10BD00000024014070B50546EE
:100550000E4600242846FFF7DFFF0446204670BD04
:1005600000B585B00121480200F0CCFC4FF40040FA
:1005700000F0BCFC1748FFF7D3FE0120FFF7BAFFDD
:10058000002000908DF804008DF805004FF46020E5
:1005900002900020039004208DF8100069460D4859
:1005A000FFF70EFF01210B48FFF7AEFE0948FFF7EA
:1005B0008BFF00BF0748FFF7F8FE0028FAD1054877
:1005C000FFF792FF00BF0348FFF7D8FE0028FAD1DB
:1005D00005B000BD0024014008B50121042000F051
:1005E00091FC4720ADF8000000208DF8030069461B
:1005F000014800F078F808BD0008014008B5012165
:10060000042000F07FFC4FF48070ADF80000102053
:100610008DF8030003208DF802006946044800F0BD
:1006200062F84FF48071024800F0E8F808BD00005D
:100630000008014000BFFEE710B51C48006820B16B
:1006400000201A49086000F070FF194800680A2865
:1006500004D300201649086000F066FF15480068C2
:10066000322804D300201349086000F0AFFF12487D
:100670000068C82804D300200F49086000F056FF26
:100680000E480068B0F57A7F04D300200B4908605B
:1006900000F040FD0A48006841F28831884204D3E6
:1006A00000200749086000F08DFF10BD3C000020CD
:1006B0004000002044000020480000204C000020A2
:1006C0005000002029B1064A52680243044B5A6088
:1006D00004E0034A52688243014B5A6070470000AD
:1006E000002004E070472DE9F04102460025002675
:1006F000002000230024002791F803C00CF00F0510
:1007000091F803C00CF0100CBCF1000F03D091F86D
:1007100002C04CEA050591F800C0BCF1000F31D0D1
:10072000146800202BE04FF0010C0CFA00F3B1F834
:1007300000C00CEA03069E4220D183004FF00F0C4C
:100740000CFA03F7BC4305FA03FC4CEA040491F8E5
:1007500003C0BCF1280F06D14FF0010C0CFA00FCCD
:10076000C2F814C00AE091F803C0BCF1480F05D1EB
:100770004FF0010C0CFA00FCC2F810C0401C082815
:10078000D1D31460B1F800C0BCF1FF0F34DD546860
:1007900000202EE000F1080C4FF0010808FA0CF3DD
:1007A000B1F800C00CEA03069E4221D183004FF04D
:1007B0000F0C0CFA03F7BC4305FA03FC4CEA0404E3
:1007C00091F803C0BCF1280F05D100F1080C08FA1C
:1007D0000CF8C2F8148091F803C0BCF1480F07D19F
:1007E00000F1080C4FF0010808FA0CF8C2F810806C
:1007F000401C0828CED35460BDE8F08141617047A9
:100800000161704700BFFEE74CF6CC40014908602B
:10081000704700000030004010B500F013F810BD24
:1008200070B505460C4645F2555000F01FF82846B5
:1008300000F010F8204600F013F800F003F8FFF77E
:10084000E3FF70BD4AF6AA20014908607047000026
:10085000003000400149486070470000003000400F
:10086000014988607047000000300040014908607D
:10087000704700000030004008B50121042000F05E
:1008800041FB0121082000F03DFB0121102000F078
:1008900039FB0121202000F035FB4FF40050ADF86A
:1008A000000010208DF8030003208DF80200694637
:1008B0002948FFF718FF4FF400512748FFF7A0FF22
:1008C0004FF48050ADF8000010208DF80300032095
:1008D0008DF8020069462148FFF705FF4FF40051EB
:1008E0001E48FFF78DFF4FF48050ADF80000102038
:1008F0008DF8030003208DF8020069461848FFF7C1
:10090000F2FE4FF480511648FFF77AFF4FF4007063
:10091000ADF8000010208DF8030003208DF80200D0
:1009200069460F48FFF7DFFE4FF400710C48FFF7F0
:1009300067FF0420ADF8000010208DF803000320AD
:100940008DF8020069460748FFF7CDFE04210548EF
:10095000FFF756FF08BD00000010014000080140ED
:10096000000C01400014014000BFFEE7704700008A
:1009700002490143024A1160704700000000FA0575
:100980000CED00E030B500240CE0002506E000206E
:10099000074901EBC5010855681CC5B2802DF6DB7F
:1009A000601CC4B2082CF0DB00F046F930BD00003A
:1009B00094020020F0B5144600267F2801DC3F2970
:1009C00000DDF0BD0B46CF1701EB5777FF10C7F1E5
:1009D0000707FAB2CF1701EB5777FF10A1EBC70754
:1009E000FDB2C5F107070123BB40DEB24CB10A4B93
:1009F00003EBC0039B5C3343074F07EBC007BB54BB
:100A000008E0054B03EBC0039B5CB343024F07EBCD
:100A1000C007BB5400BFD4E79402002000B50021FA
:100A2000AE2000F02FFA0021D52000F02BFA002193
:100A3000502000F027FA0021A82000F023FA00211E
:100A40003F2000F01FFA0021D32000F01BFA002104
:100A5000084600F017FA0021402000F013FA0021A8
:100A60008D2000F00FFA0021142000F00BFA002175
:100A7000202000F007FA0021022000F003FA0021F4
:100A8000A12000F0FFF90021C02000F0FBF90021B7
:100A9000DA2000F0F7F90021122000F0F3F900212C
:100AA000812000F0EFF90021EF2000F0EBF90021A8
:100AB000D92000F0E7F90021F12000F0E3F900214E
:100AC000DB2000F0DFF90021302000F0DBF900210D
:100AD000A42000F0D7F90021A62000F0D3F90021CE
:100AE000AF2000F0CFF9FFF74DFF00BD08B50121A1
:100AF0000C2000F007FAB020ADF8000010208DF8AF
:100B0000030003208DF8020069461448FFF7EBFD4F
:100B1000B0211248FFF774FE0320ADF8000010204A
:100B20008DF8030003208DF8020069460C48FFF79A
:100B3000DAFD03210A48FFF763FE642001F04DF857
:100B4000002008490860C82001F047F80120064944
:100B5000C1F88401642001F040F808BD000801409C
:100B6000000C0140848121420080214200B5002117
:100B7000AE2000F087F90021D52000F083F9002194
:100B8000502000F07FF90021A82000F07BF900211F
:100B90003F2000F077F90021D32000F073F9002105
:100BA000084600F06FF90021402000F06BF90021A9
:100BB0008D2000F067F90021142000F063F9002176
:100BC000202000F05FF90021022000F05BF90021F5
:100BD000A12000F057F90021C02000F053F90021B6
:100BE000DA2000F04FF90021122000F04BF900212B
:100BF000812000F047F90021EF2000F043F90021A7
:100C0000D92000F03FF90021F12000F03BF900214C
:100C1000DB2000F037F90021302000F033F900210B
:100C2000A42000F02FF90021A62000F02BF90021CC
:100C3000AF2000F027F900BD30B500241CE004F11E
:100C4000B001C8B2002100F01DF90021084600F0F3
:100C500019F90021102000F015F9002508E00849D5
:100C600001EBC501085D012100F00CF9681CC5B25B
:100C7000802DF4DB601CC4B2082CE0DB30BD00002A
:100C8000940200202DE9F84F80460F4616461C4678
:100C9000BA462046E31704EB5373DB1021464FEAB4
:100CA000E47C04EB5C7C4FEAEC0CA4EBCC0CBCF1D8
:100CB000000F02D04FF0010C01E04FF0000C634434
:100CC000224604EBD27C4FEA6C0C03FB0CF303F0DE
:100CD000FF0BA6F12000C6B200254EE00C2C07D178
:100CE00006EB4600274901EB8000405D009013E0D1
:100CF000102C05D1244800EB0610405D00900BE05D
:100D0000182C07D106EBC600204901EB8000405D9E
:100D1000009001E0BDE8F88F4FF0000927E000984F
:100D200000F0800028B1394640460A9AFFF742FE9B
:100D300009E00A9808B9012000E00020024639467F
:100D40004046FFF737FE00984006000E0090781CE2
:100D5000C7B2A7EB0A00A04205D1574608F101002F
:100D600000F0FF0806E009F1010000F0FF09B9F109
:100D7000080FD4DB00BF681CC5B25D45AEDB00BF09
:100D8000C8E70000F0270008642C0008543200086F
:100D90002DE9FF4F81B0074691461E460E9D4FF04C
:100DA000000A002439E0301B401EC1B20A2000F0C6
:100DB00097FFB9FBF0F00A21B0FBF1F201FB12083A
:100DC000BAF1000F16D1701EA04213DDB8F1000F6A
:100DD0000ED10120AB4605EBDB71491001FB04711C
:100DE0000090C8B22B4620220299FFF74BFF12E079
:100DF0004FF0010A0120AB4605EBDB71491001FB06
:100E000004710090C8B208F13001CAB22B460299B1
:100E1000FFF738FF00BF601CC4B2B442C3DB05B0AB
:100E2000BDE8F08FF8B506460F4615461C4621E092
:100E300004EBD4714910C1F18001B14202DA0026FD
:100E40003819C7B2C4F14000B84204DA002006469F
:100E50000746FFF797FD012000902A782346394680
:100E60003046FFF70FFF204604EBD07106EB61011F
:100E7000CEB26D1C28787E2802DC28782028D7DAAC
:100E8000F8BD000010B5144B19600023134CC4F8D2
:100E90009031002215E00023114C236000F0800304
:100EA00023B101230E4C0834236003E000230C4CD3
:100EB0000834236001230A4C23604306180E531C98
:100EC000DAB2082AE7DB0123054C241F2360054C16
:100ED000C4F8843110BD0000848121420000214209
:100EE0009401214200802142704700000146002009
:100EF000034A506820F440400843506070470000A7
:100F00000010024029B1064A92690243044B9A61DB
:100F100004E0034A92698243014B9A6170470000E2
:100F20000010024029B1064AD2680243044BDA603D
:100F300004E0034AD2688243014BDA607047000044
:100F400000100240704710B500F002F810BD00001C
:100F50000CB50020019000903348006840F48030C8
:100F60003149086000BF3048006800F4003000904C
:100F70000198401C0190009818B90198B0F5A06F35
:100F8000F1D12948006800F4003010B10120009030
:100F900001E0002000900098012843D12348006818
:100FA00040F01000214908600846006820F0030066
:100FB00008600846006840F0020008601A4840686F
:100FC000194948600846406848600846406840F44F
:100FD000806048600846406820F47C1048600846FD
:100FE000406840F4E81048600846006840F08070AF
:100FF000086000BF0C48006800F000700028F9D0BD
:101000000948406820F003000749486008464068E6
:1010100040F00200486000BF0348406800F00C0048
:101020000828F9D10CBD0000001002400020024049
:10103000FEB504460A46002500950195029500215B
:1010400006E04D1C32F8155022F811504D1C69B2C3
:101050000429F6DB148115680095556801951589FA
:10106000ADF8085000231AE0002112E03DF81160AD
:101070004D1C3DF81550AE4209DD3DF811004D1CE8
:101080003DF815502DF811504D1C2DF815004D1C34
:1010900069B2C3F104058D42E8DC5D1C6BB2042B20
:1010A000E2DBBDF80400FEBD10B500F0C3FD00F0AA
:1010B00023FE10BD10B51348006840F0010011492F
:1010C000086008464068104908400E4948600846D4
:1010D00000680E4908400B4908600846006820F483
:1010E000802008600846406820F4FE0048604FF405
:1010F0001F008860FFF727FF4FF000600449086079
:1011000010BD0000001002400000FFF8FFFFF6FED7
:1011100008ED00E02DE9F84FEA480068C043EA49CD
:10112000C1F88801E948D0F8B401C043E749C1F8E3
:10113000B401E749488901F07BFA804601F052F991
:10114000064632460B460020E24900F013FE0446F4
:1011500000F068FFE0490860DD49488900F0BFFF02
:1011600006460F46DA49088801F062FA009001F05D
:1011700039F982460022D94B01F000F88046324608
:101180003B4600F0F7FD044600F07CFFD4490880A0
:10119000CF49488900F0A3FF04460D46CC49488852
:1011A00001F046FA009001F01DF980460022CB4B79
:1011B00000F0E4FF064622462B4600F0DBFD8246A7
:1011C00000F060FFC6494880C149888801F030FAC4
:1011D0000646C148006801F013FA0746314601F09F
:1011E0003BFA0546BF4901F029F9044601F0E8F948
:1011F000BB498880B649C88801F01AFA0646B64845
:10120000006801F0FDF90746314601F025FA054670
:10121000B44901F013F9044601F0D2F9B049C8808D
:10122000AB49088901F004FA0646AB48006801F0B2
:10123000E7F90746314601F00FFA0546A94901F0E2
:10124000FDF8044601F0BCF9A5490881084640882C
:10125000898848434FF47A7190FBF1F0A049C86047
:1012600008460088C98848434FF47A7190FBF1F032
:101270009B4908610846008941F2883148434FF490
:101280007A7190FBF1F09649486108468069C96817
:101290000844934988610846C0690969084490492F
:1012A000C8610846C069496908448D49C861084653
:1012B00080694FF46161B0FBF1F08949086208462A
:1012C000C0694FF46161B0FBF1F08549486208469E
:1012D000006A4FF47A71B0FBF1F0814988620846E8
:1012E000406A4FF47A71B0FBF1F07D49C86208465C
:1012F00090F83000192808DB0846C068B0F57A7FFE
:1013000003D901207849086007E0754890F830005B
:10131000142802DA002074490860744874A10A880D
:101320000280897881706E4800887049C8800520E5
:10133000087208466FA10988A0F809106EA10A88F2
:10134000C281897801746648418868488182052194
:10135000817568A10988A0F8171068A10A8882839E
:10136000897881775E48808981B26048418405210F
:1013700080F8241062A10988A0F8251061A10A88CC
:101380004285897880F82C105548008A81B25748E8
:101390000186052180F8321059A10988A0F8331080
:1013A00059A1096881634E4890F830104F48C187B1
:1013B000032180F8401056A1097880F8411046308A
:1013C00054A10A880280897881704548808A81B258
:1013D0004648A0F84C10052180F84E1048A1098815
:1013E000A0F84F1054304CA10A880280897881708F
:1013F0003B48806A78B93A48008C81B23B48A0F8F3
:101400005A10042180F85C105D3044A10A880280E3
:10141000897881700EE03248008D81B23348A0F89F
:101420005A10042180F85C105D303DA10A880280CA
:10143000897881702D4862303AA10A8802808978C3
:1014400081702748C06A78B92548808C81B22748C6
:10145000A0F86810042180F86A106B302FA10A8868
:101460000280897881700EE01D48808D81B21F480E
:10147000A0F86810042180F86A106B3028A10A884F
:101480000280897881701948703022A10A88028010
:10149000897881701248808A81B21448A0F8761049
:1014A000052180F8781016A10988A0F8791000F0BD
:1014B00057F9FFF7C1FB00F009F9FFF7ADF9BDE8F7
:1014C000F88F0000888122420080224200002242E0
:1014D0006C010020D4BE5241340000200020BC40EA
:1014E0003801002000C0CC43A4812142B401002077
:1014F00050563A006D76000053563A0043503A0079
:101500006D7700004C503A00534F433A0000000002
:101510002500000053503A0043453A006D776800BB
:101520007768200044453A007047704710B50121A4
:101530001120FFF70BF804462149FFF779FD2049F8
:101540003E39488101210020FFF700F804461C497C
:101550001E39FFF76DFD1A493E3988800121084682
:10156000FEF7F4FF044616491439FFF761FD1449EC
:101570003E39C88001210220FEF7E8FF04461049E9
:101580002839FFF755FD0E493E39488001210320D7
:10159000FEF7DCFF04460A490A39FFF749FD08490E
:1015A0003E39088101210620FEF7D0FF0446044998
:1015B0003239FFF73DFD02493E39088010BD000079
:1015C000AA01002010B5FFF7D1FA10BD38480088F5
:1015D0003849097890FBF1F040F6E441884204DC98
:1015E0000020334981F830000DE03148008831494E
:1015F000097890FBF1F0A0F6E440092190FBF1F0AE
:101600002B4981F830002A4890F83000642803DD27
:101610006420274981F83000254890F830000A21DD
:1016200090FBF1F000EB80004006000E22490870AC
:1016300022480088401C214908801F480078002863
:101640002CDD084600881C49097888420EDA1B48C0
:101650000088052190FBF1F201FB1200D0B9184877
:101660000068C0431749C1F8B00113E0134800886F
:101670001149097888420ADB104801880E48007831
:101680003C30814203DA00200D49086002E000206E
:101690000A49088000200C49086008E008480068F2
:1016A000C0430849C1F8B0010120074908607047EC
:1016B00038010020320000203B00002030000020D4
:1016C000B081214200802142A001214270B51E4913
:1016D000088800F004FD044600221C4B00F04CFE7C
:1016E00003D204201A4908702CE01749088800F03A
:1016F000F6FC04460022174B00F03EFE03D2032006
:10170000134908701EE01049088800F0E8FC044600
:101710000022114B00F030FE03D202200C49087069
:1017200010E00949088800F0DAFC044600220B4B5F
:1017300000F022FE03D201200549087002E00420D7
:101740000349087070BD000038010020007EC840C9
:1017500032000020805EC240007EB840007EA8407B
:101760002DE9F8430024002500270026A046A146C5
:101770005A480078401C5949087006E058480078DB
:10178000401C57490870601CC4B2C4EBC4005549E2
:1017900011F810000028F1D151490978082903DC1B
:1017A00001214F4A117008E04D490878C11700EB3C
:1017B0005171C910491C4A4A1170484800780328E1
:1017C00017DD47480078012813DD002043490870E1
:1017D0004548007842490978884203DB01204249A4
:1017E000087004E040480078401C3F490870FFF74B
:1017F000C9F83D480078401EC006040E4FF00009AD
:101800005FE0C4EBC400374911F8100000B95BE099
:10181000204604EBD0714910A4EB410189070D0E5D
:10182000E21704EB5272D210A4EBC20101EBD172A9
:101830005210521C02EB42029206170EC4EBC40176
:10184000284A02EB4100FEF7C0FC062101FB0050D4
:10185000C6B2C4EBC400234901EB4000007A062164
:1018600001FB006000F0FF08C4EBC4001D4901EB60
:1018700040020C2339462846FFF7D4FA0C2000908A
:10188000C4EBC400174901EB4000037AC4EBC40069
:1018900001EB4000C28839463046FFF779FAC4EBC5
:1018A000C400104901EB400000F109020C23394645
:1018B0004046FFF7B7FA601CC4B209F1010000F01E
:1018C000FF09B9F1080F9CDB00BF0C2307A2002120
:1018D0001420FFF7A7FABDE8F883000038000020C5
:1018E00039000020B40100203A000020536F6C61E1
:1018F000722053797374656D0000000010B540F2DA
:101900002551044800F035F918B12021014800F0B4
:1019100027F910BD0038014070B540F225518548C7
:1019200000F027F900287DD0824800F04CF9C6B2BB
:10193000814801780078401C7F4A10707F484654E7
:1019400000785A286FD17E48007805286CD2DFE8ED
:1019500000F003091C2F460079480078401C7849A4
:1019600008709FE0754800785A2805D174480078BF
:10197000401C7349087007E000206F4908707049E7
:1019800008706E48002101708CE06C4840785A283D
:1019900005D16B480078401C6949087007E00020B9
:1019A000654908706649087064480021018079E043
:1019B00061480078042811DB6048C0780E2805D102
:1019C0005F480078401C5E49087007E000205A49D3
:1019D00008705B49087059480021016062E0564870
:1019E0000078132853DB0025002405E05348005DF0
:1019F0002844C5B2601CC4B2122CF7DB4E480078F4
:101A0000401E4E49085CA84238D108464079097901
:101A100040EA012000B24B4908804848C079474954
:101A2000897902E085E03EE032E040EA012000B240
:101A3000454908804148407A4049097A40EA0120F6
:101A400000B2424908803D48C07A3C49897A40EA60
:101A5000012000B23E4908803848407B3749097B65
:101A600040EA012000B23B4908803448C07B33493A
:101A7000897B40EA012000B23749088000202E49C6
:101A800008702F49087014212C48FEF7BDFB09E0AF
:101A90000020294908702A49087014212748FEF7B8
:101AA000B3FB00BF3AE025480078AA2836D12B487E
:101AB000007810B101282FD105E028480078401C9B
:101AC0002649087029E01C480078082823DB1B48B9
:101AD000C07955281AD1194880781849497840EAC0
:101AE000012000B21C490880144800791349C978C4
:101AF00040EA012000B217490880104880790F4958
:101B0000497940EA012000B21149088000201349B8
:101B100008700949087000E000BF00BF064800785F
:101B2000142802DD0020044908702021014800F03B
:101B300017F870BD004400401A0000202401002066
:101B40001B0000201E00002020000020220000209A
:101B50002400002026000020280000201C00002077
:101B600001F40072B2F5007F00D100BFCA430280C9
:101B7000704770B50246002400230025002040F67F
:101B80006A16B14200D100BFC1F3421501F01F0334
:101B9000012606FA03F3012D02D19689334006E0AF
:101BA000022D02D1168A334001E0968A33400C128E
:101BB000012606FA04F41688344013B10CB1012052
:101BC00000E0002070BD01468888C0F3080070471F
:101BD00000BFFEE7014600BF704710B504464FF452
:101BE0007A7104FB01F000F001F810BD10B5034656
:101BF000002400F009F8044600BF00F005F8001BBF
:101C00009842FAD310BD00004FF0E02040694FF039
:101C1000E0218969401A4821B0FBF1F004490968C4
:101C200001EB4102C2EBC11100EBC10070470000A3
:101C30005800002002480068401C014908607047B5
:101C40005800002001210802FEF73CFD21480068F1
:101C50004FF47A72B0FBF2F1B1F1807F00D31DE056
:101C600021F07F40401E4FF0E022506150170F22BC
:101C7000002807DA13071D0E174B00F00F04241F6E
:101C80001D5503E013071C0E144B1C5400BF00200D
:101C90004FF0E02290610720106100BF4FF4A06078
:101CA000FEF766FEFEF7E8FDFEF7A8FCFEF794FCE3
:101CB000FEF756FCFEF71AFFFEF7B0FEFEF7BCFF7C
:101CC00040F2D3110520FEF7ABFD01E0FEF7B4FCB6
:101CD000FCE700000000002018ED00E000E400E058
:101CE00010B50246012000E050430B1EA1F1010493
:101CF000E1B2F9D110BD000011480068401C104944
:101D0000086010480068401C0E4908600E480068D2
:101D1000401C0D4908600D480068401C0B490860D4
:101D20000B480068401C0A4908600A480068401CCB
:101D30000849086008480068401C07490860704767
:101D4000540000203C0000204000002044000020FF
:101D5000480000204C00002050000020491058BFCF
:101D6000C1F140415B1058BFC3F140438B42EFF3D8
:101D7000008070472DE9C04130B4DFF8A0C23CEAD2
:101D8000111418BF3CEA131400F0EC8081EA03053B
:101D90001CEA111444EAD57418BF1CEA131500F0AC
:101DA000C780A4EB05044FF0004545EAC12145EA90
:101DB000C32341EA505143EA525304F17F749942DC
:101DC00004F500344FEAC0204FEAC22208BF904217
:101DD00000F09C804FEA13650FF24016765D4FEAE3
:101DE000134506FB05F7C7F1807706FB07F74FEAB7
:101DF000D737A7FB03687642C8F58038A7FB06CE25
:101E000038BFA8F1010807FB08E64FF0000EA6FB5B
:101E1000028CE6FB03CEDCF1000CCEF1004E38BFA5
:101E2000AEF1010EA6FB0C584FF000074FF0000575
:101E3000E6FB0E87A1FB08C6A0FB07CE16EB0E063D
:101E400045F10005E1FB076515F1E04E7EBFA4F505
:101E500080345FEA46066D4116F1800745F10005C2
:101E60004FEA17274FEA066647EA0567A6F1DE46FE
:101E7000B6F1805F4FEA15251FD9384624F0010CD2
:101E800005EBC471BCF1FE6F01EB0C1102D8F0BC84
:101E9000BDE8008124425CBF01F5801E9EEAC47F3C
:101EA00002D4F0BCBDE80081244238D4F0BCA1F1DA
:101EB000C041BDE8004100F059BA4FEAD22242EADF
:101EC00043524FEAD323A7FB02864FEAD02040EAD1
:101ED000415007FB03661EEA0E0F4FEAD12105FBB6
:101EE000026658BFA6EB0056B6EB00564FEA520EFC
:101EF0004EEAC37E18EB0E0E56EB530EBDD518EB13
:101F000002085E417F1C55F10005B6E74FF48015CD
:101F10004FF000074FF000064FF00008ADE7F0BCAF
:101F20004FF0000001F1C04101F00041BDE8008127
:101F300011EA0C1F0CEA131500D00CE013EA0C1F79
:101F400000F025804FF00000F0BC81EA030101F0B1
:101F50000041BDE80081F0BCBDE8004181EA030119
:101F600000F004BAF0BCBDE8004170B500F0B0F973
:101F7000097EFC3E00F007B881EA03014FF0000043
:101F800001F00041704781EA030100F0EFB9F0BCB5
:101F9000BDE800414FF0000021497047FFFDFBF90B
:101FA000F7F5F4F2F0EEEDEBE9E8E6E4E3E1E0DE8C
:101FB000DDDBDAD8D7D5D4D3D1D0CFCDCCCBCAC8FE
:101FC000C7C6C5C4C2C1C0BFBEBDBCBBBAB9B8B725
:101FD000B6B5B4B3B2B1B0AFAEADACABAAA9A8A818
:101FE000A7A6A5A4A3A3A2A1A09F9F9E9D9C9C9BE6
:101FF0009A99999897979695959493939291919091
:102000008F8F8E8E8D8C8C8B8B8A89898888878721
:102010008685858484838382828181800000FF0796
:102020000000F87F4FEA41034FEA5353A3F5806362
:10203000D3F11E03C8BFD3F1210C0CDD4FF00042D9
:1020400042EAC12242EA505232FA03FC8CEAE17CB5
:10205000ACEBE1707047102BC4BF0020704703F554
:10206000787CBCF1FF3F04D06FF0004282EA21008F
:10207000704770B500F02CF9499224800020704719
:10208000F2E700004FEA1153A3F58063D3F11E037A
:10209000A8BFD3F1200C08DB4FF0004242EAC12276
:1020A00052EA505232FA03F0704709420BD4102B17
:1020B000C4BF0020704703F5787CBCF1FF3F05D01A
:1020C0004FF0FF3070474FF00000704770B500F0E0
:1020D000FFF800BF4992248000207047F0E7B0FA73
:1020E00080F310FA03F10AD0C3F11D0303F58063F6
:1020F0004FEA41504FEA035202EBD12170474FF0B3
:102100000000704751EA030C17D41CF5801F58BF1C
:10211000BCF5801F00F10680994218BF704708BFC8
:102120009042704707D711F5801F58BF13F5801FE5
:1021300019D499427047894270471CF5801F08D511
:10214000BCF5801FF7D58B4218BF704708BF82428D
:1021500070474FF4001C1CEB410F38BF1CEB430FC2
:1021600001D28B42704770B500F0B2F8922449005A
:102170004FF000514FF08053FFF7F0BDDFF848C13A
:1021800070B51CEA111E1EBF1CEA13159EEA0C0F47
:1021900095EA0C0F00F06F8081EA030423EA4C13E8
:1021A0004EEAD47E21EA4C1141F4801143F48013AD
:1021B000AE44A1FB024CA0FB0365AEF17F7E361955
:1021C00055EB0C05A1FB034C4CF10003A0FB021CDA
:1021D00016EB0C06654153F10003094218BF46F0A7
:1021E000010613F4007F0BD14FEA03314FEA0530AB
:1021F000340341EA155140EA16506FF003020AE039
:102200004FEAC3214FEAC520F40241EA555140EAA2
:1022100056506FF0020202EB2E4201EB025585EAA6
:10222000CE710AD05FEA440C18BF24F0004450F18C
:10223000000041F1000120EAD47040F2FE7C6245CA
:1022400000D270BDA84214BF4FF080444FF040440C
:10225000002E08BF0024BEF1806FA8BFA1F1C041CD
:10226000BDE8704080F282804FF0000001F1C04173
:1022700001F0004170479EEA0C0F0CEA131518BFDD
:1022800095EA0C0F06D04FF0000081EA030E0EF025
:10229000004170BD00F01CF88900013E00F007B855
:1022A00000F009B84FEA430C5FEA5C5C08D081EAB1
:1022B000030100F05BB84FEA410C5FEA5C5CF6D1C9
:1022C0004FF00000014970470000FF070000F87F51
:1022D0000EF1020E2EF0030E5EF8046B364205D4AA
:1022E000012A43EB030515F5001F12D8012841EB25
:1022F000010C1CF5001F0CD80ED14FEAD17C15F54E
:10230000001F0CEB4C0C0CF1020C08BF4CEBD37C07
:1023100004E04FF0080C01E04FEAD37C0CEB4C05D5
:1023200026FA05F606F00706B6F1040C06D20EEB07
:10233000860CBDE870404CF0010C6047DFE80CF003
:10234000090B02024FF000414FF00000A1F50021FF
:1023500070BD19461046012851EB010418BFD4F591
:10236000001484BF002001F0004170BD0808A0F5F2
:1023700000114FEA3101704753EA010C17D41CF5E4
:10238000801F58BFBCF5801F00F106808B4218BF2C
:10239000704708BF8242704707D713F5801F58BFA8
:1023A00011F5801F19D48B4270479B4270471CF572
:1023B000801F08D5BCF5801FF7D5994218BF70471C
:1023C00008BF904270474FF4001C1CEB430F38BF0E
:1023D0001CEB410F01D2994270470FB40CBC03BCF7
:1023E000FFF7C1BE43004FEAD30C4FEA3C0C434019
:1023F0001FBF40070CF1605113F0FE4F70471CF0F7
:10240000006F03D100200CF0004170470CF0004336
:1024100043EA507010B540EACC0000F09EF900BFCE
:10242000000000924FEA0001FFF7A0BF4FF000410B
:102430004FF00000A1F50021704700004FF47F0C21
:102440001CEAD0121EBF1CEAD11392EA0C0F93EAC9
:102450000C0F00F0858090EA010F48BF42F48072B3
:1024600040F4000C41F400002CF07F4120F07F404C
:1024700000B58142A2EB03020FF2081CACEB504EF8
:10248000C0F100009EF800E04FEA4E0E00FB0EFC8B
:1024900038BF49004FEA2C1C02F5FA020CFB0EF380
:1024A0004FEACE1E4FEA112C4FEAC1210EEB635EBC
:1024B00042EB22420EFB0CFC4FEA1C5300FB0311C3
:1024C0004FEA112C4FEA01310EFB0CFC4FEADC4CB9
:1024D00000FB0C11C14228BF09184CEB03335DF817
:1024E00004EB10EB410143EBC250B2F57C0F38BF57
:1024F000704729D512F0F00F1CBF00F1C04000F06A
:1025000000407047008182838485868788898B8C10
:102510008D8E8F919293959697999A9C9D9FA0A24C
:10252000A3A5A7A8AAACAEB0B2B3B5B7B9BCBEC09C
:10253000C2C5C7C9CCCED1D4D7D9DCDFE2E6E9EC3D
:10254000F0F3F7FAFE0000004FEA400C0CF1807C3B
:10255000BCF17E4F28BF7047B0F1C04000F043B9D6
:1025600090EA010F0CEAD11348BF42F48072624531
:1025700038BF634507D213F47F0F16D080EA0100FD
:1025800000F00040704710B500F0E7F8097EFC3E0F
:1025900000F005B880EA010000F00040704780EAD2
:1025A000010000F0004000F01EB912F47F0F04BFDC
:1025B0000248704780EA010000F015B90000C07FB2
:1025C000C10DD1F19E0206DB4FEA002343F0004328
:1025D00023FA02F07047004207D54FEA4001B1F1FB
:1025E000FE4F02D24FF00000704710B500F0B5F872
:1025F00049922480002070476FEA20007047000055
:1026000010F0004148BF4042B0FA80F310FA03F2E4
:10261000C3F19D030BD051EAC35101EB12205306C5
:1026200038BF704700F1010008BF20F0010070477B
:10263000B0FA80F310FA03F2C3F19D030AD0D90572
:1026400001EB1220530638BF704700F1010008BFAC
:1026500020F00100704700004FF47F0C1CEAD012FC
:102660001EBF1CEAD11392EA0C0F93EA0C0F00F084
:10267000478090EA010F48BF42F480724FF0004C4F
:102680004CEA00204CEA012102EB0302A0FB0113FB
:10269000A2F50002002918BF43F001035B0028BF28
:1026A0004FEA330342EB22425FEA132C4CEBC25059
:1026B0002EBFBCEB436FB2F57C0F70474FEA036C43
:1026C000BCF1004F08BF20F00100B2F57C0F38BF0D
:1026D00070470BD582F0FF0212F5803FC8BF7047EC
:1026E00000F1C040D8BF00F00040704700F5000C7A
:1026F0005FEA4C0C48BF7047B0F1C04000F073B8BF
:1027000090EA010F0CEAD11348BF42F4807262458F
:1027100038BF634504D280EA010000F000407047F2
:1027200010B500F01AF800BF8900013E00F007B8AC
:1027300000F009B85FEA410C5FEA1C6C08D080EA3F
:10274000010000F050B85FEA400C5FEA1C6CF6D163
:102750004FF00040A0F5800070470EF1020E2EF001
:10276000030E5EF8044B244204D44FEA4102B2F156
:102770007F4F11D84FEA4003B3F17F4F0CD80ED1F1
:102780004FEAD07CB2F17F4F0CEB4C0C0CF1020CF9
:1027900008BF4CEBD17C04E04FF0080C01E04FEA9D
:1027A000D17C0CEB4C0324FA03F404F00704B4F1DD
:1027B000040C06D20EEB840CBDE810404CF0010C6A
:1027C0006047DFE80CF0070802024FF00040A0F578
:1027D000800010BD0846420018BFD2F1807288BF49
:1027E00000F0004010BDFF2141EAD050C005704705
:1027F00000000000000000000000000000000000D9
:102800003F400000000000000000300040003000A9
:102810004000000009000BC03D000BC03D00090056
:1028200018C024407FE0224031800000180024C0FE
:102830001B000D803240018003801C4027401C801B
:102840000740004010006000000000000000000091
:102850000000000000001F802040402000004020B9
:1028600020401F8000000000090006001F800600B5
:1028700009000000040004003F8004000400000080
:1028800000100060000000000000000004000400D0
:1028900004000400040000000000004000000000EC
:1028A00000000000002001C00600380040000000C9
:1028B0001F802040204020401F800000000010406A
:1028C0003FC000400000000018C0214022402440CA
:1028D0001840000010802040244024401B8000004D
:1028E00002000D0011003FC0014000003C80244068
:1028F00024402440238000001F8024402440344092
:10290000038000003000200027C0380020000000B5
:102910001B802440244024401B8000001C0022C057
:10292000224022401F8000000000000008400000FC
:102930000000000000000000046000000000000033
:10294000000004000A001100208040400900090036
:10295000090009000900000000004040208011002B
:102960000A00040018002000234024001800000082
:102970001F802040274029401F400000004007C022
:1029800039000F0001C0004020403FC024402440D7
:102990001B8000001F80204020402040308000002D
:1029A00020403FC0204020401F80000020403FC00A
:1029B00024402E4030C0000020403FC024402E0064
:1029C000300000000F0010802040224033800200C1
:1029D00020403FC0040004003FC020402040204071
:1029E0003FC02040204000000060202020203FC049
:1029F0002000200020403FC024400B0030C0204079
:102A000020403FC020400040004000C03FC03C008C
:102A100003C03C003FC0000020403FC00C402300EA
:102A20003FC020001F802040204020401F80000029
:102A300020403FC024402400180000001F80214097
:102A4000214020E01FA0000020403FC0244026007D
:102A500019C0004018C024402440224031800000AA
:102A6000300020403FC020403000000020003F8068
:102A7000004000403F80200020003E0001C00700D1
:102A800038002000380007C03C0007C038000000B4
:102A9000204039C0060039C02040000020003840E6
:102AA00007C0384020000000304021C02640384098
:102AB00020C00000000000007FE040204020000017
:102AC000000070000C000380004000000000402067
:102AD00040207FE0000000000000200040002000B7
:102AE0000000000000100010001000100010001086
:102AF0000000000040000000000000000000028014
:102B00000540054003C0004020003FC00440044091
:102B100003800000000003800440044006400000E1
:102B200000000380044024403FC0004000000380B8
:102B30000540054003400000000004401FC0244041
:102B400024402000000002E00550055006500420FB
:102B500020403FC00440040003C000400000044087
:102B600027C000400000000000100010041027E003
:102B70000000000020403FC00140070004C00440A6
:102B8000204020403FC000400040000007C004003B
:102B900007C0040003C00000044007C00440040054
:102BA00003C0004000000380044004400380000094
:102BB000041007F00450044003800000000003806C
:102BC0000440045007F00010044007C00240040015
:102BD00004000000000006400540054004C000005D
:102BE000000004001F800440004000000400078033
:102BF0000040044007C000400400070004C00180FA
:102C000006000400060001C0070001C00600000025
:102C1000044006C0010006C0044000000410071074
:102C200004E00180060004000000044005C00640E6
:102C3000044000000000000004007BE04020000091
:102C4000000000000000FFF0000000000000402035
:102C50007BE00400000000004000800040002000F5
:102C60002000400000000000000000000000000004
:102C7000000000000000000000001FCC000C00005D
:102C80000000000000000800300060000800300074
:102C900060000000022003FC1E20022003FC1E2016
:102CA0000220000000000E1811043FFF10840C7871
:102CB000000000000F0010840F3800C0077818844F
:102CC0000078000000780F8410C411240E9800E4EE
:102CD0000084000808006800700000000000000088
:102CE0000000000000000000000007E018182004A9
:102CF00040020000000040022004181807E0000015
:102D0000000000000240024001800FF001800240FC
:102D1000024000000080008000800FF800800080EA
:102D2000008000000001000D000E00000000000007
:102D30000000000000000080008000800080008013
:102D4000008000800000000C000C0000000000006B
:102D5000000000000000000600180060018006006E
:102D600018002000000007F00808100410040808EC
:102D700007F000000000080408041FFC0004000421
:102D80000000000000000E0C1014102410441184E8
:102D90000E0C000000000C1810041104110412881D
:102DA0000C700000000000E00320042408241FFC35
:102DB0000024000000001F981084110411041088E2
:102DC00010700000000007F0088811041104188832
:102DD0000070000000001C00100010FC13001C001C
:102DE0001000000000000E381144108410841144BB
:102DF0000E38000000000700088C104410440888BA
:102E000007F00000000000000000030C030C0000AD
:102E100000000000000000000001010600000000AA
:102E2000000000000000008001400220041008089B
:102E300010040000022002200220022002200220B2
:102E400002200000000010040808041002200140C5
:102E50000080000000000E001200100C106C1080AA
:102E60000F00000003E00C1813E4142417C4082812
:102E700007D000000004003C03C41C40074000E4ED
:102E8000001C000410041FFC1104110411040E881E
:102E90000070000003E00C18100410041004100867
:102EA0001C10000010041FFC10041004100408087B
:102EB00007F0000010041FFC1104110417C41004D3
:102EC0000818000010041FFC1104110017C01000A6
:102ED0000800000003E00C181004100410441C78D3
:102EE0000040000010041FFC10840080008010844B
:102EF0001FFC10040000100410041FFC1004100438
:102F00000000000000030001100110011FFE10006E
:102F10001000000010041FFC110403801464181C2E
:102F20001004000010041FFC10040004000400043E
:102F3000000C000010041FFC1F0000FC1F001FFC01
:102F40001004000010041FFC0C04030000E0101823
:102F50001FFC100007F008081004100410040808F3
:102F600007F0000010041FFC1084108010801080F7
:102F70000F00000007F0081810241024101C080A85
:102F800007F2000010041FFC1104110011C01130E1
:102F90000E0C000400000E1C110410841084104458
:102FA0001C3800001800100010041FFC1004100052
:102FB0001800000010001FF81004000400041004A2
:102FC0001FF8100010001E0011E0001C007013809C
:102FD0001C0010001FC0103C00E01F0000E0103C6F
:102FE0001FC000001004180C163401C001C01634B4
:102FF000180C100410001C00130400FC13041C0027
:10300000100000000804101C1064108413041C0439
:10301000101800000000000000007FFE4002400287
:1030200040020000000030000C0003800060001C23
:103030000003000000004002400240027FFE00004A
:1030400000000000000000002000400040004000A0
:10305000200000000001000100010001000100014A
:1030600000010001000040004000200000000000BE
:1030700000000000000000980124014401440144C4
:1030800000FC000410001FFC0088010401040088FB
:1030900000700000000000700088010401040104B9
:1030A000008800000000007000880104010411087D
:1030B0001FFC0004000000F80144014401440144E5
:1030C00000C800000000010401040FFC11041104F9
:1030D00011001800000000D601290129012901C9A9
:1030E0000106000010041FFC00840100010001041F
:1030F00000FC000400000104190419FC0004000491
:10310000000000000000000300010101190119FE88
:103110000000000010041FFC0024004001B4010C5A
:10312000010400000000100410041FFC000400044F
:1031300000000000010401FC0104010001FC010485
:10314000010000FC010401FC0084010001000104F5
:1031500000FC0004000000F8010401040104010463
:1031600000F80000010101FF00850104010400884E
:1031700000700000000000700088010401040105D7
:1031800001FF00010104010401FC008401040100AD
:1031900001800000000000CC01240124012401244E
:1031A0000198000000000100010007F8010401047B
:1031B00000000000010001F8000400040004010800
:1031C00001FC0004010001800170000C001001608E
:1031D0000180010001F0010C003001C00030010C41
:1031E00001F0010000000104018C00740170018CE9
:1031F00001040000010101810171000E001801604D
:103200000180010000000184010C013401440184AB
:10321000010C0000000000000000000001003EFC66
:10322000400240020000000000000000FFFF00001C
:10323000000000000000400240023EFC01000000CF
:10324000000000000000600080008000400040009E
:10325000200020000000000000000000000000002E
:10326000000000000000000000000000000000005E
:10327000000000000000000000000000000000004E
:10328000000000000000000F80380FFE380F80386B
:10329000000000000000000000000000000000002E
:1032A00000000100000600000C00003800003100A2
:1032B000000600000C000038000030000000000094
:1032C0000000000061800067F807F980006180005D
:1032D00061800061800061800067F807F98000610B
:1032E0008000000000000000000001C0E003E0F0EA
:1032F0000630080418081FFFFE040E080787F003B5
:1033000081E000000000000001F000060C00040451
:1033100008060C7001F9C0000E00003BE000EC183C
:10332000070808040C180003E00000000001E0009A
:1033300007F003F818041C0804170807E1D003C0BD
:10334000E00023B0003C080020080000100000004E
:103350000000000100003100003200001C000000ED
:10336000000000000000000000000000000000005D
:10337000000000000000000000000000000000004D
:10338000000000007F0001FFC00780F00C00181053
:1033900000042000020000000000002000021000D5
:1033A000040C00180780F001FFC0007F000000003F
:1033B000000000000000000000000000000000000D
:1033C0004200006600006600003C0000180003FF99
:1033D000C0001800003C00006600006600004200CB
:1033E00000000000080000080000080000080000BD
:1033F000080001FFC00008000008000008000008E5
:103400000000080000000000000100003100003250
:1034100000001C0000000000000000000000000090
:10342000000000000000000000000000080000088C
:103430000000080000080000080000080000080064
:103440000008000008000008000000000000000064
:1034500000000000380000380000380000000000C4
:10346000000000000000000000000000000000005C
:1034700000000000000600001C0000700001800039
:103480000E0000380000C0000700001C00003000E3
:1034900000000000000000007F8001FFE00380705A
:1034A00006001804000804000806001803807001D4
:1034B000FFE0007F8000000000000000000001002D
:1034C0000801000801000803FFF807FFF8000008E2
:1034D00000000800000800000000000000000001DB
:1034E000C03802C0580400980401180402180404EB
:1034F00018061C1803F81801E0F80000000000008E
:1035000000000001C0E003C0F00400080408080443
:10351000080806180803F41801E7F00001E00000AD
:1035200000000000000000000300000D000011007A
:1035300000610000810803010807FFF80FFFF80091
:1035400001080001080000000000000000E007FC86
:10355000D0060808061008061008061008061838D5
:10356000060FF00607C00000000000000000000089
:103570003F8001FFE00384300208180410080410A3
:1035800008041008071810030FF00007C00000001F
:1035900000000000000003C0000700000600000655
:1035A00000F80607F806180006E00007000006000D
:1035B0000000000000000001E1E003F7F006341015
:1035C000041808041808040C08040C08061618034C
:1035D000F3F001C1E000000000000000F80003FC6F
:1035E0003003063804020804020804020804041028
:1035F0000308F001FFC0007F000000000000000091
:1036000000000000000000000000000070380070A2
:1036100038007038000000000000000000000000CA
:10362000000000000000000000000000000000009A
:10363000301A00301C0000000000000000000000F4
:10364000000000000000000000000008000014005E
:1036500000220000410000808001004002002004A0
:1036600000100800080000000000000021000021F8
:1036700000002100002100002100002100002100A5
:1036800000210000210000210000000000000000D7
:103690000000080008040010020020010040008023
:1036A000800041000022000014000008000000001B
:1036B00000000003C00004C0000400000800380837
:1036C0000F380808380810000C300007E00003C06D
:1036D00000000000000000003F8000FFE003807059
:1036E000020F1006708804C088048308047F8802D3
:1036F000C09003012000FE400000080000180001F7
:10370000F8003E0801C20007020007E20000FE00C8
:10371000001FC80001F80000380000080400080776
:10372000FFF807FFF804080804080804080804085C
:103730000806180803F41801E7F00001E000000093
:10374000000000003F8001FFE003807002001804C9
:103750000008040008040008040010060020078088
:10376000C000000004000807FFF807FFF804000885
:10377000040008040008040018020010038070010F
:10378000FFE0007F8000000004000807FFF807FF4B
:10379000F8040808040808040808040808043E0897
:1037A000040008060018010060000000040008077B
:1037B000FFF807FFF80408080408000408000408DC
:1037C00000043E000600000600000180000000002A
:1037D000000000003F8001FFE00380700600180435
:1037E00000080402080402080203F00783F0000244
:1037F0000000020004000807FFF807FFF8040808AB
:10380000000800000800000800000800040808077D
:10381000FFF807FFF80400080000000000000400A3
:103820000804000804000807FFF807FFF804000870
:103830000400080400080000000000000000000070
:10384000000600000700000104000104000104005C
:103850000307FFFE07FFFC04000004000004000053
:1038600004000807FFF807FFF8040C080018000020
:103870003E0004C7800503C80600F80400380400B1
:103880001800000804000807FFF807FFF804000804
:103890000000080000080000080000080000080000
:1038A000001800006000000004000807FFF807800F
:1038B0000807FC00007FC00003F80007C000780084
:1038C00007800807FFF807FFF8040008040008074E
:1038D000FFF807000803C00000E000003800001EE9
:1038E000000007000001C00400F007FFF80400001A
:1038F000000000007F8001FFE003807006001804D4
:10390000000804000806001803003001FFE0007FF3
:103910008000000004000807FFF807FFF80404080F
:10392000040400040400040400040400060C000362
:10393000F80001F000000000000000007F8001FF9F
:10394000E00380700600880400880400C806003C7C
:1039500003003E01FFE6007F84000000040008072A
:10396000FFF807FFF8040808040800040C00040F1F
:1039700000040BC00610F003F03801E00800000856
:1039800000000001E0F803F03006301004180804CD
:103990001808040C08040C080206180207F0078136
:1039A000E0000000018000060000040000040000A8
:1039B00004000807FFF807FFF804000804000004EB
:1039C000000006000001800004000007FFE007FF80
:1039D000F0040018000008000008000008000008BB
:1039E00000000804001007FFE004000004000006C7
:1039F000000007E00007FE00041FE00001F80000DF
:103A0000380001E0043E0007C0000600000400008A
:103A100004000007E00007FFC0041FF80007C0070C
:103A2000F80007FF80043FF80007C004F800070013
:103A30000004000000000004000806001807C07819
:103A400005F1C8003E00001F800463E80780F80607
:103A500000180400080000000400000600000780B1
:103A60000007E008047C08001FF80007F8001808A9
:103A700004E0080700000600000400000000000148
:103A800000080600380400F80403E8040F08047C6A
:103A90000805F00807C008070018040060000000CF
:103AA0000000000000000000000000000000003FD7
:103AB000FFFE200002200002200002200002200061
:103AC00002000000000000000000080000070000E5
:103AD00000C0000038000006000001C000003000F7
:103AE000000E0000010000000000000000002000A7
:103AF000022000022000022000022000023FFFFE00
:103B000000000000000000000000000000000000B5
:103B1000000000000008000010000030000020003D
:103B2000003000001000000800000000000000004D
:103B30000000010000010000010000010000010080
:103B40000001000001000001000001000001000070
:103B50000100000100000000000000000020000043
:103B60002000001000001000000000000000000015
:103B700000000000000000000000000000F000193C
:103B8000F8001B1800220800260800240800241052
:103B9000003FF8001FF800000800001800000004B3
:103BA000000007FFF80FFFF00018180010080020B1
:103BB00008002008003018001FF0000FC0000000AF
:103BC0000000000007C0001FF000183000200800AF
:103BD0002008002008003C08001C100000600000C5
:103BE000000000000000000007C0001FF0003818AF
:103BF00000200800200800200804101007FFF80F1C
:103C0000FFF00000100000000000000000000007AE
:103C1000C0001FF000123000221800220800220805
:103C2000003208001E10000E2000000000000000FE
:103C3000200000200800200801FFF803FFF80620FC
:103C400008042008042008072000030000000000EA
:103C500000000000000E000E6E001FF30031B100E6
:103C600020B10020B1003191001F13002E1E002052
:103C70000E00300000000004000807FFF80FFFF8F6
:103C8000001008002000002000002008003FF8007D
:103C90001FF80000080000000000000000000020E5
:103CA00008002008002008063FF8063FF80000083A
:103CB00000000800000800000000000000000000F4
:103CC000000000000300000300200100200100208C
:103CD00003063FFE063FFC0000000000000000005D
:103CE00000000004000807FFF80FFFF8000188003B
:103CF0000300002FC00038F8002038002008000022
:103D00000800000000000000000004000804000893
:103D100004000807FFF80FFFF80000080000080083
:103D20000008000000000000002008003FF8003FED
:103D3000F8001008002000003FF8003FF8001008CD
:103D4000002000003FF8003FF800000800000000DD
:103D50002008003FF8003FF8001008001000002085
:103D600000002008003FF8001FF8000008000000D5
:103D70000000000007C0000FF000183000300800FD
:103D80002008002008003008001830000FF000075D
:103D9000C0000000000000002001003FFF003FFFC6
:103DA0000010110020090020080020080030380011
:103DB0001FF0000FC00000000000000007C0001F3F
:103DC000F000381800200800200800200900101119
:103DD000001FFF003FFF000001000000002008005E
:103DE0002008002008003FF8003FF80008080010F5
:103DF0000800200800200000300000300000000013
:103E0000000000000000000C78001E1800330800BD
:103E100023080021080021880021980030F0003894
:103E200060000000000000002000002000002000D2
:103E300000FFF003FFF80020080020080020080021
:103E40000030000000000000000000002000003FE3
:103E5000F0007FF8000018000008000008002010A3
:103E6000003FF8007FF0000010000000000000009C
:103E70002000003000003C00003F800023F00000E4
:103E800078000070002380003C000030000020001B
:103E9000002000003C00003FE00023F80000E000AC
:103EA0002700003E00003FE00021F80001E0003E56
:103EB0000000200000000000200800200800383822
:103EC000003E680027800003C8002CF80038380046
:103ED0002018002008000000000000002000003032
:103EE00003003C01003F830023EC000070002380AE
:103EF000003C000020000020000000000000000046
:103F000000000038080020380020F80023E8002FC7
:103F100088003E08003808002018000070000000EB
:103F20000000000000000000000000000000000091
:103F300008000014001FF7FC3000062000020000FB
:103F40000000000000000000000000000000000071
:103F5000000000000000FFFFFF0000000000000064
:103F60000000000000000000000000000000200031
:103F7000023000061FF7FC001400000800000000DB
:103F80000000000000000000000000000000001819
:103F90000000600000400000400000200000100011
:103FA000000800000400000400000C0000100000E5
:103FB000D03F0008000000205C000000280100083D
:103FC0002C4000085C0000209C0C0000440100080C
:103FD00000A24A04000000000000000001020304E7
:103FE00006070809000000000000000000000000B3
:103FF00000000000000000000000000000000000C1
:1040000000000400000000000000010000000000AB
:1040100000000000000000000000000000000000A0
:0C40200000000000000000000000000094
:04000005080000ED02
:00000001FF
