:020000040800F2
:100000001008002089010008050A0008BD07000843
:10001000F5080008A5050008F71700080000000013
:10002000000000000000000000000000ED0B0008D0
:1000300041060008000000008D0A0008A90D000814
:10004000A3010008A3010008A3010008A301000800
:10005000A3010008A3010008A3010008A3010008F0
:10006000A3010008A3010008A3010008A3010008E0
:10007000A3010008A3010008A3010008A3010008D0
:10008000A3010008A3010008A3010008A3010008C0
:10009000A3010008A3010008A3010008A3010008B0
:1000A000A3010008A3010008A3010008A3010008A0
:1000B000A3010008A3010008A3010008A301000890
:1000C000A3010008A3010008A3010008A301000880
:1000D000A3010008E913000805140008A3010008A3
:1000E000A3010008A3010008A301000800F002F822
:1000F00000F03AF80AA090E8000C82448344AAF188
:100100000107DA4501D100F02FF8AFF2090EBAE885
:100110000F0013F0010F18BFFB1A43F0010318473B
:10012000B0220000D0220000103A24BF78C878C165
:10013000FAD8520724BF30C830C144BF04680C60ED
:10014000704700000023002400250026103A28BF35
:1001500078C1FBD8520728BF30C148BF0B60704739
:100160001FB51FBD10B510BD00F07CF81146FFF79C
:10017000F7FF01F09DFC00F09AF803B4FFF7F2FFDF
:1001800003BC01F03AFB00000948804709480047DA
:10019000FEE7FEE7FEE7FEE7FEE7FEE7FEE7FEE737
:1001A000FEE7FEE704480549054A064B7047000094
:1001B000B10D0008ED00000810020020100800201A
:1001C000100400201004002070474FF000020429A2
:1001D000C0F0128010F0030C00F01F80CCF1040C72
:1001E000BCF1020F18BF00F8012BA8BF20F8022BAA
:1001F000A1EB0C0100F011B85FEAC17C24BF00F84C
:10020000012B00F8012B48BF00F8012B7047704705
:100210007047704770474FF0000200B51346944690
:100220009646203922BFA0E80C50A0E80C50B1F14E
:100230002001BFF4F7AF090728BFA0E80C5048BF62
:100240000CC05DF804EB890028BF40F8042B08BF00
:10025000704748BF20F8022B11F0804F18BF00F8FC
:10026000012B7047754600F02BF8AE460500694635
:10027000534620F00700854618B020B5FFF792FFDF
:10028000BDE820404FF000064FF000074FF0000897
:100290004FF0000B21F00701AC46ACE8C009ACE818
:1002A000C009ACE8C009ACE8C0098D46704710B57C
:1002B0000446AFF300802046BDE81040FFF75DBF65
:1002C00000487047AC01002021B1826842F0010271
:1002D000826003E0826822F00102826070470000C1
:1002E00010B504461248844208D10121401500F09F
:1002F000FBFB0021601500F0F7FB17E00D4884427E
:1003000008D10121001500F0EFFB0021201500F0BD
:10031000EBFB0BE00848844208D10121C80300F040
:10032000E3FB00214FF4004000F0DEFB10BD0000B5
:100330000024014000280140003C0140014600200B
:100340008A6802F004020AB1012000E00020704730
:100350000146C86C80B270470246002013680B400B
:100360000BB1012000E000207047014600208A68A0
:1003700002F008020AB1012000E0002070470000EE
:1003800030B502460020002350680F4C20400D7904
:100390000C6844EA05242043506090680B4C2040D0
:1003A000D1E902542C434D7944EA4504204390603E
:1003B000D06A20F470000C7C641EE4B2234340EA4F
:1003C0000350D06230BD0000FFFEF0FFFDF7F1FFEB
:1003D000F0B504460D4600200021092D11DDE0682E
:1003E000A5F10A0606EB4607072606FA07F1884339
:1003F000A5F10A0606EB460603FA06F10843E0609B
:100400000CE0206905EB4507072606FA07F188434B
:1004100005EB450603FA06F108432061072A0FDAC7
:10042000606B561E06EB86071F2606FA07F1884307
:10043000561E06EB860605FA06F10843606322E0C5
:100440000D2A0FDA206BD61F06EB86071F2606FA49
:1004500007F18843D61F06EB860605FA06F1084326
:10046000206310E0E06AA2F10D0606EB86071F2666
:1004700006FA07F18843A2F10D0606EB860605FA97
:1004800006F10843E062F0BD816841F00801816037
:10049000704721B1826842F4A002826003E0826862
:1004A00022F4A00282607047816841F004018160FB
:1004B0007047000030B10749096841F40001054A5E
:1004C000116005E00349096821F40001014A116047
:1004D000704700000824014000B587B001214FF4A7
:1004E000017000F0F1FA4FF4004000F0D1FA03205F
:1004F000ADF8040000208DF8070001A9194800F0AC
:10050000A0F81948FFF7ECFE0120FFF7D3FF002009
:1005100002908DF80C008DF80D004FF460200490CF
:100520000020059001208DF8180002A90E48FFF761
:1005300027FF01210C48FFF7C7FE0B48FFF7A4FF78
:1005400000BF0948FFF711FF0028FAD10648FFF75E
:10055000ABFF00BF0448FFF7F1FE0028FAD107B057
:1005600000BD0000000801400024014008B5012141
:10057000042000F0A9FA4FF48070ADF800001020BC
:100580008DF8030003208DF802006946044800F04E
:1005900058F84FF48071024800F0DEF808BD000002
:1005A0000008014000BFFEE710B51848006820B100
:1005B00000201649086000F0C5FC154800680A28AC
:1005C00006D300201249086000F0B8FC00F006FBDA
:1005D00010480068322804D300200E49086000F05B
:1005E000B3FC0D480068642804D300200A49086061
:1005F00000F078FC09480068B0F57A7F04D3002049
:100600000649086000F004FC10BD0000B80000209E
:10061000BC000020C0000020C4000020C800002052
:1006200029B1064A52680243044B5A6004E0034A67
:1006300052688243014B5A6070470000002004E07A
:1006400070472DE9F04102460025002600200023D6
:100650000024002791F803C00CF00F0591F803C0A7
:100660000CF0100CBCF1000F03D091F802C04CEA62
:10067000050591F800C0BCF1000F31D014680020CE
:100680002BE04FF0010C0CFA00F3B1F800C00CEABB
:1006900003069E4220D183004FF00F0C0CFA03F7A3
:1006A000BC4305FA03FC4CEA040491F803C0BCF116
:1006B000280F06D14FF0010C0CFA00FCC2F814C050
:1006C0000AE091F803C0BCF1480F05D14FF0010CCE
:1006D0000CFA00FCC2F810C0401C0828D1D31460EA
:1006E000B1F800C0BCF1FF0F34DD546800202EE0EB
:1006F00000F1080C4FF0010808FA0CF3B1F800C043
:100700000CEA03069E4221D183004FF00F0C0CFA35
:1007100003F7BC4305FA03FC4CEA040491F803C058
:10072000BCF1280F05D100F1080C08FA0CF8C2F84A
:10073000148091F803C0BCF1480F07D100F1080CF8
:100740004FF0010808FA0CF8C2F81080401C082885
:10075000CED35460BDE8F0814161704701617047BC
:1007600010B504460723012221460948FFF730FE51
:1007700001210748FFF78DFE00BF02210448FFF763
:10078000EBFD0028F9D00248FFF7E2FD10BD0000A4
:10079000002401402DE9F04107460C4600250026C3
:1007A00005E03846FFF7DCFF0544701CC6B2A642E0
:1007B000F7DBB5FBF4F080B2BDE8F08100BFFEE7E7
:1007C0004CF6CC4001490860704700000030004002
:1007D00010B500F013F810BD70B505460C4645F293
:1007E000555000F01FF8284600F010F8204600F0A1
:1007F00013F800F003F8FFF7E3FF70BD4AF6AA20F4
:10080000014908607047000000300040014948601D
:1008100070470000003000400149886070470000C8
:10082000003000400149086070470000003000407F
:1008300008B50121042000F047F90121082000F04B
:1008400043F90121102000F03FF90121202000F0A0
:100850003BF942F20100ADF8000010208DF80300D2
:1008600003208DF8020069461E48FFF7EAFE42F2B7
:1008700001011C48FFF772FF4FF48050ADF80000F3
:1008800010208DF8030003208DF8020069461648F9
:10089000FFF7D7FE4FF400511348FFF75FFF20200A
:1008A000ADF8000010208DF8030003208DF8020041
:1008B00069460E48FFF7C5FE20210C48FFF74EFFA2
:1008C0000420ADF8000010208DF8030003208DF8FF
:1008D000020069460648FFF7B4FE04210448FFF70A
:1008E0003DFF08BD0010014000080140000C014020
:1008F0000014014000BFFEE708B50121082000F008
:10090000E3F84FF47040ADF8000010208DF80300BC
:1009100003208DF8020069460448FFF792FE4FF469
:1009200070410248FFF71AFF08BD0000000C0140AB
:1009300030B589B005460C460121042000F0B4F81A
:100940000121082000F0C0F84FF47070ADF82000CD
:1009500018208DF8230003208DF8220008A92748CD
:10096000FFF76FFE4FF470712448FFF7F5FEADF806
:100970001850ADF814400020ADF81A00ADF816007C
:1009800005A91F4800F0DEFC6020ADF8040001203E
:10099000ADF806000020ADF80A00ADF80C0001A982
:1009A000174800F06BFB01A9154800F0BDFB01A939
:1009B000134800F019FC01A9114800F06FFC012157
:1009C0000F4800F04BFB08210D4800F0A3FB082165
:1009D0000B4800F0FBFB0821094800F055FC0821FA
:1009E000074800F099FC0121054800F01FFB012198
:1009F000034800F027FB09B030BD0000000C0140A7
:100A0000000800407047000070B5002100230F224D
:100A1000C47804B3154C246804F4E064C4F5E064BD
:100A2000210AC1F10403CA40447804FA03F184782E
:100A30001440214309010E4C0678A155047804F0B6
:100A40001F050124AC4005786D11AD0005F1E025CE
:100A5000C5F8004109E0047804F01F050124AC400A
:100A6000044D0678761145F8264070BD0CED00E087
:100A700000E400E080E100E002490143024A116025
:100A8000704700000000FA050CED00E07047000020
:100A900001460020034A506820F44040084350605B
:100AA000704700000010024029B1064AD269024393
:100AB000044BDA6104E0034AD2698243014BDA61F4
:100AC000704700000010024029B1064A92690243B3
:100AD000044B9A6104E0034A92698243014B9A6194
:100AE000704700000010024029B1064AD268024354
:100AF000044BDA6004E0034AD2688243014BDA60B7
:100B0000704700000010024030B500210022002490
:100B100000232D4D6D6805F00C0121B1042905D08D
:100B2000082923D105E0294D056022E0274D056005
:100B30001FE0254D6D6805F47012234D6D6805F4B6
:100B40008034022505EB92421CB9214D55430560C6
:100B50000BE01D4D6D6805F400351DB11C4D55436E
:100B6000056002E0194D5543056002E0174D056030
:100B700000BF00BF144D6D6805F0F0010909154D67
:100B80006B5C0568DD4045600F4D6D6805F4E06104
:100B9000090A104D6B5C4568DD4085600A4D6D6843
:100BA00005F46051C90A0B4D6B5C4568DD40C560BA
:100BB000054D6D6805F44041890B074D6B5CC568B8
:100BC000B5FBF3F5056130BD0010024000127A005C
:100BD00000093D004C0000205C0000200248008815
:100BE000401C01490880704716000020704710B56E
:100BF00000F002F810BD00000CB50020019000903C
:100C00003348006840F480303149086000BF304804
:100C1000006800F4003000900198401C019000989A
:100C200018B90198B0F5A06FF1D12948006800F417
:100C3000003010B10120009001E0002000900098E9
:100C4000012843D12348006840F010002149086082
:100C50000846006820F0030008600846006840F07D
:100C6000020008601A484068194948600846406810
:100C700048600846406840F4806048600846406824
:100C800020F47C1048600846406840F4E810486052
:100C90000846006840F08070086000BF0C4800689B
:100CA00000F000700028F9D00948406820F00300E7
:100CB000074948600846406840F00200486000BFAD
:100CC0000348406800F00C000828F9D10CBD000072
:100CD000001002400020024070B505460C4609484D
:100CE0000560B4F5C86F01DB40F23F64012D03D10C
:100CF00040F23F60001B84B22146034800F01BFB1A
:100D000070BD0000B48121420008004070B5054666
:100D10000C4609480560B4F5C86F01DB40F23F643A
:100D2000012D03D140F23F60001B84B221460348ED
:100D300000F005FB70BD0000BC81214200080040AE
:100D400070B505460C4609480560B4F5C86F01DB6F
:100D500040F23F64012D03D140F23F60001B84B29A
:100D60002146034800F0E5FA70BD0000B081214241
:100D70000008004070B505460C4609480560B4F50A
:100D8000C86F01DB40F23F64012D03D140F23F60A8
:100D9000001B84B22146034800F0CFFA70BD00006A
:100DA000B88121420008004010B500F0D7FE10BD08
:100DB00010B51348006840F001001149086008466A
:100DC0004068104908400E494860084600680E49CE
:100DD00008400B4908600846006820F4802008603D
:100DE0000846406820F4FE0048604FF41F00886009
:100DF000FFF7FDFE4FF000600449086010BD0000E1
:100E0000001002400000FFF8FFFFF6FE08ED00E0D2
:100E10002DE9F84F29480068C0432949C1F88801E5
:100E200001211120FFF7B6FC2649088008460088FA
:100E300001F0EEF9804601F0A7F9064632460B466E
:100E40000020214900F008FF044601F05DF81F4929
:100E5000086001210020FFF79DFC1D49088019480A
:100E6000008801F080F804460D461948008801F01A
:100E7000CFF9009001F088F980460022154B01F06F
:100E800085F8064622462B4600F0E6FE824601F033
:100E90003BF81149086011480078192803DB01204C
:100EA0000F49086006E00D480078142802DA002097
:100EB0000B490860FFF78CFCBDE8F88F888122425F
:100EC0000080224202000020D4BE524118000020BF
:100ED0000000002000608540080000201000002075
:100EE000800122422DE9F04701210846FFF752FC1C
:100EF0000E4908800846008801F08AF981460C48AE
:100F0000006801F06DF98246494601F095F9044602
:100F100001F03AF907460022064B00F09DFE054617
:100F200000F0F2FF04490860BDE8F08704000020EB
:100F300018000020009869400C00002000B5FFF761
:100F40004DFE00BD7047000032490868C11700EB34
:100F500091714FF4A572B2EBA10F03DB00202E4973
:100F6000087010E02B490868C11700EB91718910D7
:100F7000A1F5A5710A2291FBF2F101EB810149066D
:100F8000090E254A117024480078642802DD642087
:100F90002149087021480088401C204908801E48CB
:100FA000007800282CDD084600881B490978884213
:100FB0000EDA1A480088052190FBF1F201FB1200BD
:100FC000D0B917480068C0431649C1F8940113E02E
:100FD000124800881049097888420ADB0F480188C6
:100FE0000D4800783C30814203DA01200C4908604A
:100FF00002E000200949088000200B49086008E051
:1010000007480068C0430749C1F894010120064918
:101010000860704708000020100000201200002027
:101020009481214200802142A001214221B1028805
:1010300042F08002028004E002884FF67F731A407B
:101040000280704721B1028842F00102028004E070
:1010500002884FF6FE731A400280704731B1B0F833
:10106000442042F40042A0F8442005E0B0F84420B7
:10107000C2F30E02A0F844207047000070B50024AF
:1010800000220023058C4FF6FE7635400584028C45
:101090008388048B4FF68F752C40B51E2C400D882D
:1010A0002C43751E2A400D892A434D882A43144D2E
:1010B000A8420BD0134DA84208D0134DA84205D02A
:1010C000124DA84202D0124DA84213D14FF6F77527
:1010D0002A404D892A434FF6FB752A408D882A43C2
:1010E0004FF6FF652B404FF6FF552B408D892B4364
:1010F000CD892B4383800483CD888586028470BD8F
:10110000002C0140003401400040014000440140F7
:10111000004801400A460021018B4FF6F773194041
:10112000114301837047000070B5002400220023A2
:10113000058C4FF6EF7635400584028C8388048B4E
:1011400048F6FF752C404FF6FF452C400D884FF6B2
:10115000FF7606EA05252C434FF6DF752A400D89F8
:1011600006EA05152A434D8806EA05152A43154D5A
:10117000A84202D0144DA8421DD14FF67F752A40D7
:101180004D894FF6FF7606EA05152A434FF6BF75DF
:101190002A408D8806EA05152A434FF6FF352B4075
:1011A0004FF2FF752B408D8906EA85052B43CD89CB
:1011B00006EA85052B4383800483CD880587028456
:1011C00070BD0000002C0140003401400A4600219F
:1011D000018B4FF2FF7319404FF6FF7303EA0223AE
:1011E000194301837047000070B5002400220023DA
:1011F000058C4FF6FF6635400584028C8388848B0E
:101200004FF68F752C404FF6FC752C400D882C4303
:101210004FF6FF552A400D894FF6FF7606EA052561
:101220002A434D8806EA05252A43154DA84202D0D7
:10123000144DA8421DD14FF2FF752A404D894FF63B
:10124000FF7606EA05252A434FF6FF352A408D88AA
:1012500006EA05252A434EF6FF752B404DF6FF752D
:101260002B408D8906EA05152B43CD8906EA051525
:101270002B4383808483CD888587028470BD0000E2
:10128000002C0140003401400A460021818B4FF6BA
:10129000F7731940114381837047000070B5002235
:1012A00000230024058C4EF6FF7635400584038C20
:1012B0008488828B48F6FF752A404FF6FF452A4006
:1012C0000D884FF6FF7606EA05252A434DF6FF7591
:1012D0002B400D8906EA05352B434D8806EA053576
:1012E0002B430B4DA84202D00A4DA84208D14BF621
:1012F000FF752C408D894FF6FF7606EA85152C4345
:1013000084808283CD88A0F84050038470BD0000A3
:10131000002C0140003401400A460021818B4FF22D
:10132000FF7319404FF6FF7303EA022319438183C9
:101330007047818670470187704781877047A0F8A2
:1013400040107047002202881D4B98420ED01D4B62
:1013500098420BD0B0F1804F08D01B4B984205D07B
:101360001A4B984202D01A4B984204D14FF68F7311
:101370001A404B881A43174B984207D0164B984295
:1013800004D04FF6FF431A40CB881A4302808B8863
:1013900083850B8803850A4B98420BD0094B9842F2
:1013A00008D00E4B984205D00D4B984202D00D4B01
:1013B000984201D10B7A0386012383827047000093
:1013C000002C0140003401400004004000080040AF
:1013D000000C00400010004000140040004001409C
:1013E000004401400048014010B540F22551044836
:1013F00000F041F918B12021014800F027F910BD93
:101400000038014070B540F22551854800F033F9AD
:1014100000287DD0824800F0E9F9C6B28148017801
:101420000078401C7F4A10707F48465400785A2844
:101430006FD17E48007805286CD2DFE800F0030900
:101440001C2F460079480078401C784908709FE0BE
:10145000754800785A2805D174480078401C7349B3
:10146000087007E000206F490870704908706E48E6
:10147000002101708CE06C4840785A2805D16B48F7
:101480000078401C6949087007E000206549087031
:101490006649087064480021018079E0614800785D
:1014A000042811DB6048C0780E2805D15F48007819
:1014B000401C5E49087007E000205A4908705B49EB
:1014C000087059480021016062E0564800781328EE
:1014D00053DB0025002405E05348005D2844C5B2D5
:1014E000601CC4B2122CF7DB4E480078401E4E49F7
:1014F000085CA84238D108464079097940EA0120C1
:1015000000B24B4908804848C0794749897902E0D0
:1015100085E03EE032E040EA012000B24549088023
:101520004148407A4049097A40EA012000B24249E4
:1015300008803D48C07A3C49897A40EA012000B2DF
:101540003E4908803848407B3749097B40EA012002
:1015500000B23B4908803448C07B3349897B40EA6C
:10156000012000B23749088000202E4908702F4919
:10157000087014212C48FEF728FE09E000202949B4
:1015800008702A49087014212748FEF71EFE00BF84
:101590003AE025480078AA2836D12B48007810B1C7
:1015A00001282FD105E028480078401C2649087002
:1015B00029E01C480078082823DB1B48C0795528FF
:1015C0001AD1194880781849497840EA012000B2B8
:1015D0001C490880144800791349C97840EA012061
:1015E00000B217490880104880790F49497940EACC
:1015F000012000B2114908800020134908700949F0
:10160000087000E000BF00BF06480078142802DD23
:101610000020044908702021014800F017F870BD2F
:101620000044004066000020980100206700002070
:101630006A0000206C0000206E0000207000002076
:1016400072000020740000206800002001F4007285
:10165000B2F5007F00D100BFCA430280704721B1BC
:10166000828942F40052828104E082894DF6FF7340
:101670001A408281704770B502460024002300257D
:10168000002040F66A16B14200D100BFC1F34215F6
:1016900001F01F03012606FA03F3012D02D19689FA
:1016A000334006E0022D02D1168A334001E0968ACB
:1016B00033400C12012606FA04F41688344013B1A4
:1016C0000CB1012000E0002070BDF0B503460024FD
:1016D00000260025002040F66A17B94200D100BF5D
:1016E0001846C1F3421401F01F06012707FA06F558
:1016F000012C01D10C3004E0022C01D1103000E0AB
:1017000014301AB107682F43076002E00768AF433F
:101710000760F0BD2DE9F04786B005460E4600246F
:10172000A24600BFA1460027B08900B100BF2F46E6
:101730002C8A4CF6FF700440F08804432C82AC895C
:101740004EF6F3100440B08831890843718908438C
:101750000443AC81AC8A4FF6FF400440B089044397
:10176000AC8201A8FFF7D0F91F48874202D1DDF80B
:1017700010A001E0DDF80CA0A88900F4004040B101
:101780000AEBCA0000EB0A1031684900B0FBF1F81F
:1017900007E00AEBCA0000EB0A1031688900B0FBD1
:1017A000F1F86420B8FBF0F004012009642101FB8A
:1017B0001089A88900F4004040B1322000EBC90034
:1017C000B0FBF1F000F00700044308E0322000EB2A
:1017D00009106421B0FBF1F000F00F0004432C81EC
:1017E00006B0BDE8F0870000003801400146888857
:1017F000C0F30800704700BFFEE7014600BF704716
:1018000070B505460C4640F2DC5084420BDA9F4826
:101810000078022803D105209D49087034E001209A
:101820009B49087030E0B4F5E16F0BDD9748007814
:10183000012803D105209649087025E0022094492B
:10184000087021E040F2DC5085420BDA8F480078C6
:10185000042803D105208E49087015E003208C4927
:10186000087011E0B5F5E16F0BDD884800780328BA
:1018700003D105208649087006E0042084490870D9
:1018800002E0002082490870814800787F49087092
:101890007F48007806287CD2DFE800F0032C7C1219
:1018A0001FC900207B4908707B4908707B4908806C
:1018B0007B4908807B48B0F900007B490860CAE09A
:1018C00001207449087000207349087040F2DC5010
:1018D0007249088072490880BDE000206D49087097
:1018E00001206D49087040F2DC506C4908806C4959
:1018F0000880B0E00020674908706749087040F22E
:10190000DC50001B4FF4C861484340F2DC5190FBAF
:10191000F1F06249088040F2DC50001B4FF4C861CE
:10192000484340F2DC5190FBF1F05D4908805D488E
:10193000B0F900005C490968401A00EB80005B497F
:10194000086008460068322802DD3220086008E09E
:101950005648006810F1320F03DA6FF03100534936
:1019600008605248006864304C4909884843642143
:1019700090FBF1F0494908804C480068C0F16400D0
:10198000474909884843642190FBF1F044490880A5
:1019900061E056E001203F4908703F490870A4F516
:1019A000E1604FF4C861484340F2DC5190FBF1F034
:1019B0003A490880A4F5E1604FF4C861484340F219
:1019C000DC5190FBF1F0364908803648B0F9000050
:1019D00035490968401A00EB800034490860084620
:1019E0000068322802DD3220086008E02F480068D5
:1019F00010F1320F03DA6FF031002C4908602B48E8
:101A00000068C0F16400254909884843642190FBBF
:101A1000F1F022490880254800686430204909888F
:101A20004843642190FBF1F01D49088013E0002039
:101A30001849087018490870184908801849088022
:101A400009E0002013490870134908701349088001
:101A50001349088000BF00BF114801880E48007874
:101A6000FFF788F90E4801880B480078FFF768F9FE
:101A70000A48018807480078FFF748F907480188B5
:101A800004480078FFF728F970BD000086000020A8
:101A90007C000020840000208500002080000020C1
:101AA0008200002078000020880000208C000020A8
:101AB00001210802FEF7B4FD254800684FF47A7250
:101AC000B0FBF2F1B1F1807F00D31DE021F07F4047
:101AD000401E4FF0E022506150170F22002807DA15
:101AE00013071D0E1B4B00F00F04241F1D5503E0B0
:101AF00013071C0E184B1C5400BF00204FF0E022AF
:101B000090610720106100BF4FF4A060FEF7B4FFA2
:101B10004FF4E13000F04EF8FEF78AFEFEF726FDA6
:101B2000FEF7DAFCFEF7E8FE092140F23F60FEF71F
:101B3000FFFE40F272610846FFF762FE40F2D311E9
:101B40000520FEF749FE01E0FEF72EFDFCE7000050
:101B50003800002018ED00E000E400E00F480068C5
:101B6000401C0E4908600E480068401C0C49086083
:101B70000C480068401C0B4908600B480068401C7A
:101B80000949086009480068401C0849086008487D
:101B90000068401C0649086070470000CC00002027
:101BA000B8000020BC000020C0000020C4000020BD
:101BB000C800002010B586B0044601210420FEF7BD
:101BC00083FF01214804FEF76FFF0420ADF81400E5
:101BD00003208DF8160004208DF8170005A91C4875
:101BE000FEF72FFD0820ADF8140004208DF8170033
:101BF00005A91748FEF725FD26208DF800000320D3
:101C00008DF8010002208DF8020001208DF80300FC
:101C10006846FEF7F9FE01940020ADF80800ADF823
:101C20000A00ADF80C00ADF810000C20ADF80E0065
:101C300001A90848FFF76EFD012240F22551054831
:101C4000FFF743FD01210348FFF709FD06B010BD72
:101C500000080140004400402DE9C04130B4DFF8E5
:101C6000A0C23CEA111418BF3CEA131400F0EC8047
:101C700081EA03051CEA111444EAD57418BF1CEA72
:101C8000131500F0C780A4EB05044FF0004545EAAA
:101C9000C12145EAC32341EA505143EA525304F1BA
:101CA0007F74994204F500344FEAC0204FEAC22203
:101CB00008BF904200F09C804FEA13650FF2401677
:101CC000765D4FEA134506FB05F7C7F1807706FB03
:101CD00007F74FEAD737A7FB03687642C8F5803885
:101CE000A7FB06CE38BFA8F1010807FB08E64FF0B6
:101CF000000EA6FB028CE6FB03CEDCF1000CCEF15D
:101D0000004E38BFAEF1010EA6FB0C584FF0000795
:101D10004FF00005E6FB0E87A1FB08C6A0FB07CE2F
:101D200016EB0E0645F10005E1FB076515F1E04EE7
:101D30007EBFA4F580345FEA46066D4116F1800748
:101D400045F100054FEA17274FEA066647EA05679F
:101D5000A6F1DE46B6F1805F4FEA15251FD9384659
:101D600024F0010C05EBC471BCF1FE6F01EB0C110A
:101D700002D8F0BCBDE8008124425CBF01F5801EA2
:101D80009EEAC47F02D4F0BCBDE80081244238D46E
:101D9000F0BCA1F1C041BDE8004100F0EFB94FEA4D
:101DA000D22242EA43524FEAD323A7FB02864FEAEC
:101DB000D02040EA415007FB03661EEA0E0F4FEAAF
:101DC000D12105FB026658BFA6EB0056B6EB0056C4
:101DD0004FEA520E4EEAC37E18EB0E0E56EB530E30
:101DE000BDD518EB02085E417F1C55F10005B6E732
:101DF0004FF480154FF000074FF000064FF0000839
:101E0000ADE7F0BC4FF0000001F1C04101F000412E
:101E1000BDE8008111EA0C1F0CEA131500D00CE09C
:101E200013EA0C1F00F025804FF00000F0BC81EA9F
:101E3000030101F00041BDE80081F0BCBDE80041B4
:101E400081EA030100F09AB9F0BCBDE8004170B529
:101E500000F046F9097EFC3E00F007B881EA030174
:101E60004FF0000001F00041704781EA030100F0EB
:101E700085B9F0BCBDE800414FF000002149704732
:101E8000FFFDFBF9F7F5F4F2F0EEEDEBE9E8E6E43F
:101E9000E3E1E0DEDDDBDAD8D7D5D4D3D1D0CFCDC6
:101EA000CCCBCAC8C7C6C5C4C2C1C0BFBEBDBCBBFF
:101EB000BAB9B8B7B6B5B4B3B2B1B0AFAEADACABFA
:101EC000AAA9A8A8A7A6A5A4A3A3A2A1A09F9F9ED4
:101ED0009D9C9C9B9A999998979796959594939386
:101EE000929191908F8F8E8E8D8C8C8B8B8A89891D
:101EF00088888787868585848483838282818180A0
:101F00000000FF070000F87F4FEA41034FEA5353F8
:101F1000A3F58063D3F11E03C8BFD3F1210C0CDD00
:101F20004FF0004242EAC12242EA505232FA03FC28
:101F30008CEAE17CACEBE1707047102BC4BF002051
:101F4000704703F5787CBCF1FF3F04D06FF000428E
:101F500082EA2100704770B500F0C2F849922480EF
:101F600000207047F2E7B0FA80F310FA03F10AD0CC
:101F7000C3F11D0303F580634FEA41504FEA03525A
:101F800002EBD12170474FF000007047DFF848C1E5
:101F900070B51CEA111E1EBF1CEA13159EEA0C0F39
:101FA00095EA0C0F00F06F8081EA030423EA4C13DA
:101FB0004EEAD47E21EA4C1141F4801143F480139F
:101FC000AE44A1FB024CA0FB0365AEF17F7E361947
:101FD00055EB0C05A1FB034C4CF10003A0FB021CCC
:101FE00016EB0C06654153F10003094218BF46F099
:101FF000010613F4007F0BD14FEA03314FEA05309D
:10200000340341EA155140EA16506FF003020AE02A
:102010004FEAC3214FEAC520F40241EA555140EA94
:1020200056506FF0020202EB2E4201EB025585EA98
:10203000CE710AD05FEA440C18BF24F0004450F17E
:10204000000041F1000120EAD47040F2FE7C6245BC
:1020500000D270BDA84214BF4FF080444FF04044FE
:10206000002E08BF0024BEF1806FA8BFA1F1C041BF
:10207000BDE8704080F282804FF0000001F1C04165
:1020800001F0004170479EEA0C0F0CEA131518BFCF
:1020900095EA0C0F06D04FF0000081EA030E0EF017
:1020A000004170BD00F01CF88900013E00F007B847
:1020B00000F009B84FEA430C5FEA5C5C08D081EAA3
:1020C000030100F05BB84FEA410C5FEA5C5CF6D1BB
:1020D0004FF00000014970470000FF070000F87F43
:1020E0000EF1020E2EF0030E5EF8046B364205D49C
:1020F000012A43EB030515F5001F12D8012841EB17
:10210000010C1CF5001F0CD80ED14FEAD17C15F53F
:10211000001F0CEB4C0C0CF1020C08BF4CEBD37CF9
:1021200004E04FF0080C01E04FEAD37C0CEB4C05C7
:1021300026FA05F606F00706B6F1040C06D20EEBF9
:10214000860CBDE870404CF0010C6047DFE80CF0F5
:10215000090B02024FF000414FF00000A1F50021F1
:1021600070BD19461046012851EB010418BFD4F583
:10217000001484BF002001F0004170BD0808A0F5E4
:1021800000114FEA3101704743004FEAD30C4FEA88
:102190003C0C43401FBF40070CF1605113F0FE4F51
:1021A00070471CF0006F03D100200CF00041704715
:1021B0000CF0004343EA507010B540EACC0000F048
:1021C000BCF800BF000000924FEA0001FFF7D6BF45
:1021D0004FF000414FF00000A1F5002170470000D2
:1021E00010F0004148BF4042B0FA80F310FA03F209
:1021F000C3F19D030BD051EAC35101EB12205306EA
:1022000038BF704700F1010008BF20F0010070479F
:10221000B0FA80F310FA03F2C3F19D030AD0D90596
:1022200001EB1220530638BF704700F1010008BFD0
:1022300020F00100704700004FF47F0C1CEAD01220
:102240001EBF1CEAD11392EA0C0F93EA0C0F00F0A8
:10225000478090EA010F48BF42F480724FF0004C73
:102260004CEA00204CEA012102EB0302A0FB01131F
:10227000A2F50002002918BF43F001035B0028BF4C
:102280004FEA330342EB22425FEA132C4CEBC2507D
:102290002EBFBCEB436FB2F57C0F70474FEA036C67
:1022A000BCF1004F08BF20F00100B2F57C0F38BF31
:1022B00070470BD582F0FF0212F5803FC8BF704710
:1022C00000F1C040D8BF00F00040704700F5000C9E
:1022D0005FEA4C0C48BF7047B0F1C04000F073B8E3
:1022E00090EA010F0CEAD11348BF42F480726245B4
:1022F00038BF634504D280EA010000F00040704717
:1023000010B500F01AF800BF8900013E00F007B8D0
:1023100000F009B85FEA410C5FEA1C6C08D080EA63
:10232000010000F050B85FEA400C5FEA1C6CF6D187
:102330004FF00040A0F5800070470EF1020E2EF025
:10234000030E5EF8044B244204D44FEA4102B2F17A
:102350007F4F11D84FEA4003B3F17F4F0CD80ED115
:102360004FEAD07CB2F17F4F0CEB4C0C0CF1020C1D
:1023700008BF4CEBD17C04E04FF0080C01E04FEAC1
:10238000D17C0CEB4C0324FA03F404F00704B4F101
:10239000040C06D20EEB840CBDE810404CF0010C8E
:1023A0006047DFE80CF0070802024FF00040A0F59C
:1023B000800010BD0846420018BFD2F1807288BF6D
:1023C00000F0004010BDFF2141EAD050C005704729
:1023D000F023000800000020D000000028010008C1
:1023E000C0240008D000002040070000440100087D
:1023F00000000000000000000000000000000000DD
:1024000000000000000000000000000000000000CC
:1024100000000000000000000000000000000000BC
:10242000000000000000000000A24A0400000000BC
:102430000000000001020304060708090000000074
:102440000102030401020304060708090204060846
:10245000000000000000000000000000000000007C
:10246000000000000000000000000000000000006C
:1024700000000000000000000000000064000000F8
:10248000FFFFFFFFFFFFFFFFFFFFFFFFFFFFFFFF5C
:10249000FFFFFFFFFFFFFFFFFFFFFFFF0000000048
:1024A000000000000000000000000000000000002C
:1024B000000000000000000000000000000000001C
:04000005080000ED02
:00000001FF
